{
  "contractName": "Basic_Lottery_By_Moiz",
  "abi": [
    {
      "inputs": [],
      "stateMutability": "nonpayable",
      "type": "constructor"
    },
    {
      "inputs": [],
      "name": "Lottery_Owner",
      "outputs": [
        {
          "internalType": "address payable",
          "name": "",
          "type": "address"
        }
      ],
      "stateMutability": "view",
      "type": "function",
      "constant": true
    },
    {
      "inputs": [
        {
          "internalType": "uint256",
          "name": "index",
          "type": "uint256"
        }
      ],
      "name": "getPlayerAddressAtIndex",
      "outputs": [
        {
          "internalType": "address",
          "name": "player",
          "type": "address"
        }
      ],
      "stateMutability": "view",
      "type": "function",
      "constant": true
    },
    {
      "inputs": [],
      "name": "getTotalPlayerCount",
      "outputs": [
        {
          "internalType": "uint256",
          "name": "count",
          "type": "uint256"
        }
      ],
      "stateMutability": "view",
      "type": "function",
      "constant": true
    },
    {
      "inputs": [],
      "name": "Pay_For_Being_Part_of_Lottery",
      "outputs": [],
      "stateMutability": "payable",
      "type": "function",
      "payable": true
    },
    {
      "inputs": [],
      "name": "Get_Total_Balance_Of_The_Contract",
      "outputs": [
        {
          "internalType": "uint256",
          "name": "",
          "type": "uint256"
        }
      ],
      "stateMutability": "view",
      "type": "function",
      "constant": true
    },
    {
      "inputs": [],
      "name": "PickWinnerOFtheLottery",
      "outputs": [
        {
          "internalType": "address",
          "name": "",
          "type": "address"
        }
      ],
      "stateMutability": "nonpayable",
      "type": "function"
    }
  ],
  "bytecode": "0x608060405234801561001057600080fd5b50336000806101000a81548173ffffffffffffffffffffffffffffffffffffffff021916908373ffffffffffffffffffffffffffffffffffffffff160217905550610aaa806100606000396000f3fe6080604052600436106100555760003560e01c806313e67c161461005a578063368f9388146100855780634a3d22c11461008f57806373465f5f146100cc5780639d90dc4d146100f7578063fd9d3c2114610122575b600080fd5b34801561006657600080fd5b5061006f61014d565b60405161007c9190610616565b60405180910390f35b61008d610171565b005b34801561009b57600080fd5b506100b660048036038101906100b1919061066c565b6102af565b6040516100c391906106ba565b60405180910390f35b3480156100d857600080fd5b506100e16102f7565b6040516100ee91906106ba565b60405180910390f35b34801561010357600080fd5b5061010c6104df565b60405161011991906106e4565b60405180910390f35b34801561012e57600080fd5b506101376104e7565b60405161014491906106e4565b60405180910390f35b60008054906101000a900473ffffffffffffffffffffffffffffffffffffffff1681565b671bc16d674ec8000034146101bb576040517f08c379a00000000000000000000000000000000000000000000000000000000081526004016101b2906107a8565b60405180910390fd5b60008054906101000a900473ffffffffffffffffffffffffffffffffffffffff1673ffffffffffffffffffffffffffffffffffffffff163373ffffffffffffffffffffffffffffffffffffffff16141561024a576040517f08c379a000000000000000000000000000000000000000000000000000000000815260040161024190610814565b60405180910390fd5b6001339080600181540180825580915050600190039060005260206000200160009091909190916101000a81548173ffffffffffffffffffffffffffffffffffffffff021916908373ffffffffffffffffffffffffffffffffffffffff160217905550565b6000600182815481106102c5576102c4610834565b5b9060005260206000200160009054906101000a900473ffffffffffffffffffffffffffffffffffffffff169050919050565b60008060009054906101000a900473ffffffffffffffffffffffffffffffffffffffff1673ffffffffffffffffffffffffffffffffffffffff163373ffffffffffffffffffffffffffffffffffffffff1614610388576040517f08c379a000000000000000000000000000000000000000000000000000000000815260040161037f906108d5565b60405180910390fd5b600360018054905010156103d1576040517f08c379a00000000000000000000000000000000000000000000000000000000081526004016103c890610967565b60405180910390fd5b6000600180805490506103e26104f4565b6103ec91906109b6565b815481106103fd576103fc610834565b5b9060005260206000200160009054906101000a900473ffffffffffffffffffffffffffffffffffffffff1690508073ffffffffffffffffffffffffffffffffffffffff166108fc61044c6104df565b9081150290604051600060405180830381858888f19350505050158015610477573d6000803e3d6000fd5b50600067ffffffffffffffff811115610493576104926109e7565b5b6040519080825280602002602001820160405280156104c15781602001602082028036833780820191505090505b50600190805190602001906104d792919061052e565b508091505090565b600047905090565b6000600180549050905090565b6000444260018054905060405160200161051093929190610a37565b6040516020818303038152906040528051906020012060001c905090565b8280548282559060005260206000209081019282156105a7579160200282015b828111156105a65782518260006101000a81548173ffffffffffffffffffffffffffffffffffffffff021916908373ffffffffffffffffffffffffffffffffffffffff1602179055509160200191906001019061054e565b5b5090506105b491906105b8565b5090565b5b808211156105d15760008160009055506001016105b9565b5090565b600073ffffffffffffffffffffffffffffffffffffffff82169050919050565b6000610600826105d5565b9050919050565b610610816105f5565b82525050565b600060208201905061062b6000830184610607565b92915050565b600080fd5b6000819050919050565b61064981610636565b811461065457600080fd5b50565b60008135905061066681610640565b92915050565b60006020828403121561068257610681610631565b5b600061069084828501610657565b91505092915050565b60006106a4826105d5565b9050919050565b6106b481610699565b82525050565b60006020820190506106cf60008301846106ab565b92915050565b6106de81610636565b82525050565b60006020820190506106f960008301846106d5565b92915050565b600082825260208201905092915050565b7f5061727469636970616e7473206e65656420746f206465706f7369742032204560008201527f7468657220666f72206265696e672070617274206f662074686973204c6f747460208201527f6572792e00000000000000000000000000000000000000000000000000000000604082015250565b60006107926044836106ff565b915061079d82610710565b606082019050919050565b600060208201905081810360008301526107c181610785565b9050919050565b7f416c65727421204c6f7474657279204f776e65722063616e277420706c61792e600082015250565b60006107fe6020836106ff565b9150610809826107c8565b602082019050919050565b6000602082019050818103600083015261082d816107f1565b9050919050565b7f4e487b7100000000000000000000000000000000000000000000000000000000600052603260045260246000fd5b7f416c65727421204f6e6c79204c6f7474657279204f776e65722063616e20636160008201527f6c6c20746869732066756e6374696f6e00000000000000000000000000000000602082015250565b60006108bf6030836106ff565b91506108ca82610863565b604082019050919050565b600060208201905081810360008301526108ee816108b2565b9050919050565b7f416c6572742120546865726520617265206e6f7420656e6f756768206e756d6260008201527f6572206f6620706c6179657273207269676874206e6f77000000000000000000602082015250565b60006109516037836106ff565b915061095c826108f5565b604082019050919050565b6000602082019050818103600083015261098081610944565b9050919050565b7f4e487b7100000000000000000000000000000000000000000000000000000000600052601260045260246000fd5b60006109c182610636565b91506109cc83610636565b9250826109dc576109db610987565b5b828206905092915050565b7f4e487b7100000000000000000000000000000000000000000000000000000000600052604160045260246000fd5b6000819050919050565b610a31610a2c82610636565b610a16565b82525050565b6000610a438286610a20565b602082019150610a538285610a20565b602082019150610a638284610a20565b60208201915081905094935050505056fea26469706673582212203dd595e67ac6dd6a1f2e2a67dc256bd986e1bbf5b1acc12479216e9f496d2abe64736f6c634300080a0033",
  "immutableReferences": {},
  "source": "// SPDX-License-Identifier: MIT\npragma solidity >=0.8.0 <0.9.0;\n\ncontract Basic_Lottery_By_Moiz {\n    \naddress payable public  Lottery_Owner;\naddress payable[] private players_list;\n\n\n  constructor ()\n{\n    Lottery_Owner = payable (msg.sender); // contract deployer is the Lottery Owner\n}\n\n\n  function getPlayerAddressAtIndex(uint index) public view returns(address player) {\n        return players_list[index];\n    }\n\n    function getTotalPlayerCount() public view returns(uint count) {\n        return players_list.length;\n    }\n\n\n  function Pay_For_Being_Part_of_Lottery() payable public {\n    \n    require (msg.value == 2 ether, \"Participants need to deposit 2 Ether for being part of this Lottery.\" );\n    require (msg.sender != Lottery_Owner, \"Alert! Lottery Owner can't play.\");\n    players_list.push(payable(msg.sender)); \n}\n\n   function Get_Total_Balance_Of_The_Contract() public view returns (uint)\n{\n    return address(this).balance;\n}\n \n   function Randomly_Generate_A_Number_To_Select_A_Player () internal view returns (uint) // no externally owned account or contract address can call this function, as its scope is internal and being called in pickWinnner function.\n{\n    return uint(keccak256(abi.encodePacked(block.difficulty,block.timestamp ,players_list.length)));\n}\n    \n   function PickWinnerOFtheLottery () public returns(address)\n{\n    \n    require (msg.sender == Lottery_Owner, \"Alert! Only Lottery Owner can call this function\");\n    require (players_list.length >= 3, \"Alert! There are not enough number of players right now\");\n    \n    address payable Winner = players_list[Randomly_Generate_A_Number_To_Select_A_Player() % players_list.length]; // gives us a number from \"0\" to \"players_list.length -1\", if \"players_list.length = 3\" it will give us a number \"2\".\n    \n    Winner.transfer(Get_Total_Balance_Of_The_Contract()); // transfer all the money lock in the contract to the Winner of the lottery\n    \n    players_list = new address payable[] (0);  // Reset the lottery from the start, by removing all the players.\n    return Winner;\n    \n}    \n    \n    \n}// end of contract\n\n\n",
  "sourcePath": "/home/syed/Desktop/Lottery_Contract_Deployed_on_RinkebyTestnet_using_Truffle/contracts/LotteryContract.sol",
  "compiler": {
    "name": "solc",
    "version": "0.8.10+commit.fc410830.Emscripten.clang"
  },
  "schemaVersion": "3.4.3",
  "updatedAt": "2021-11-19T11:54:58.092Z",
  "networkType": "ethereum",
  "devdoc": {
    "kind": "dev",
    "methods": {},
    "version": 1
  },
  "userdoc": {
    "kind": "user",
    "methods": {},
    "version": 1
  }
}